D02FU203005027560170211010825CFADEL MERCOSUL S.A.                               00000000001250000000000000000006173075-0   2000000000000000000000002022083000000000                                                                 20221011114256miguel.ber                                                                                                                                                                                                                                                                                                                                          
D02FU203005027560170211011140CFADEL MERCOSUL S.A.                               000000000360000000000000000000080119681-7  2000000000000000000000002022082600000000                                                                 20221011114256miguel.ber                                                                                                                                                                                                                                                                                                                                          
D02FU203005027560170211011156CFADEL MERCOSUL S.A.                               000000000085000000000000000000080121309-6  2000000000000000000000002022082500000000                                                                 20221011114256miguel.ber                                                                                                                                                                                                                                                                                                                                          
D02FU203005027560170211010897CFADEL MERCOSUL S.A.                               00000000008000000000000000000004016180-3   2000000000000000000000002022082400000000                                                                 20221011114256miguel.ber                                                                                                                                                                                                                                                                                                                                          
D02FU203005027560170211010907CFADEL MERCOSUL S.A.                               00000000005300000000000000000001738761-2   2000000000000000000000002022090600000000                                                                 20221011114256miguel.ber                                                                                                                                                                                                                                                                                                                                          
C     03005027560000000000000                                                   0000000005905000000000000000000            0                    0000000000000000000                                                                 00000000000000                                                                                                                                                                                                                                                                                                                                                    